:1000000029C043C042C041C040C03FC03EC03DC007
:100010003CC03BC03AC039C038C037C036C035C01C
:1000200034C033C032C0084AD73B3BCE016E84BCDB
:10003000BFFDC12F3D6C74319ABD56833DDA3D0042
:10004000C77F11BED9E4BB4C3E916BAAAABE00008B
:1000500000803F0011241FBECFE5D4E0DEBFCDBF3E
:1000600010E0A0E6B0E0E8E2F3E102C005900D92F6
:10007000A43CB107D9F711E0A4ECB0E001C01D9297
:10008000A930B107E1F769D34DC9BACFEF92FF921A
:100090000F93DF93CF93CDB7DEB760970FB6F89489
:1000A000DEBF0FBECDBFA82F002309F467C07E01BD
:1000B0000894E11CF11C88E0F70111928A95E9F798
:1000C00029833A834B835C836D837E83AF839887D8
:1000D00080E2801B4D815E816F817885E82FFF274C
:1000E000E7FDF0951816B4F0DB01CA01BB0F880BD1
:1000F000982FDC018D879E87AF87B88B882799273B
:100100008E1B9F0B04C075956795579547958A95EB
:10011000D2F728C0202F332727FD3095DB01CA01F5
:10012000022E04C0B595A795979587950A94D2F7A6
:100130008D879E87AF87B88B04C0440F551F661FFD
:10014000771FEA95D2F789819A81AB81BC8104C07F
:10015000B695A795979587952A95D2F7482B592B51
:100160006A2B7B2B49875A876B877C8729853A8541
:100170004B855C856D857E85AF8598898A2F6096D5
:100180000FB6F894DEBF0FBECDBFCF91DF910F91B8
:10019000FF90EF90089511B888E480B90895982FE2
:1001A00084EA86BFE6E5F0E080818823ECF781B140
:1001B000887F803111F080E0089593B984E886BF8C
:1001C000E6E5F0E080818823ECF781B1887F803418
:1001D00011F481E00895803211F083E0089582E007
:1001E000089584E986BFE6E5F0E0808184FDFDCFD7
:1001F0000895BF92CF92DF92EF92FF920F931F93D9
:10020000CF93DF93E82EC6E5D0E00F2EF4EAFF2E61
:10021000F02D01E210E00F2EF3E2CF2EDD24F02DC1
:100220000F2EF4E8BF2EF02DF88288818823ECF79A
:10023000F8018081887F8830B9F7F601E082B882C2
:1002400088818823ECF7F8018081887F883111F05C
:10025000C8DFEACFDF91CF911F910F91FF90EF9010
:10026000DF90CF90BF90089583B984E886BFE6E51C
:10027000F0E080818823ECF781B1887F883211F427
:1002800080E00895803311F082E0089581E00895C0
:1002900084EC86BFE6E5F0E080818823ECF783B14B
:1002A000089584E886BFE6E5F0E080818823ECF7D6
:1002B00083B1089520E0E2E3F0E080818F7E8083C7
:1002C00080818B7F80838081806180832F5F283055
:1002D000A1F70895FF920F931F93F42E02E310E00D
:1002E000F8019081977F9083E5DF8F2DE3DFF801A0
:1002F0008081886080831F910F91FF9008951F93E4
:1003000010E01F5F812F40E050E060E070E0E2DF2E
:100310001830B9F71F91089584E040E050E060E0A4
:1003200070E0D8DF8AE041E050E060E070E0D2DFCA
:100330008BE047E050E060E070E0CCDF8CE041E033
:1003400050E060E070E0C6DF8FE040E050E060E049
:1003500070E0C0DFD4DF08951F93CF93DF93C2ED29
:10036000D0E010E01F5F4991599169917991812FF7
:10037000B1DF1830B9F7DF91CF911F910895CF9376
:10038000DF93EC0140E050E062ED70E09B01240F50
:10039000351FFE01E40FF51F80819181A281B38199
:1003A000F90180839183A283B3834C5F5F4F403216
:1003B000510561F7DF91CF9108956F927F928F92EF
:1003C0009F92AF92BF92CF92DF92EF92FF920F93E4
:1003D000062F442321F0413009F04BC025C0E82FFF
:1003E000F0E0EE0FFF1FEE0FFF1FEE52FF4F80E019
:1003F00090E0A0E0B0E8062E04C0B695A7959795CA
:1004000087950A94D2F780959095A095B095208114
:1004100031814281538182239323A423B523808396
:100420009183A283B38349C0E82EFF24EE0CFF1C06
:10043000EE0CFF1C82ED90E0E80EF91E20E030E0AB
:1004400040E050E068E070E080E090E01FDE622E67
:10045000732E842E952EF70180819181A281B38124
:1004600086299729A829B92980839183A283B383F8
:1004700024C0E82EFF24EE0CFF1CEE0CFF1C82EDC6
:1004800090E0E80EF91E20E030E040E050E068E047
:1004900070E080E090E0FADD622E732E842E952EBF
:1004A000F70180819181A281B38186259725A825B6
:1004B000B92580839183A283B3830F91FF90EF903E
:1004C000DF90CF90BF90AF909F908F907F906F9074
:1004D000089584E890E053DF3FDF24EC39E040E901
:1004E00051E0CA010197F1F721503040D1F708954A
:1004F0000F931F93182F062FE091F600F091F7004D
:10050000A091FE00B091FF0080816C9140E055DF2A
:1005100023DF4091F800842F90E001971816190608
:100520003CF560E0E091F600F091F700862F90E056
:10053000AC014F5F5F4FDF01A80FB91FE40FF51F3C
:1005400020812C93E091FE00F091FF00DF01A80FC5
:10055000B91FE40FF51F80818C936F5F4091F80005
:10056000262F30E0842F90E0019728173907D4F226
:10057000E091F600F091F700E40FF11D3197108340
:100580008091F800E091FE00F091FF00E80FF11D6E
:1005900031970083812F602F41E00FDFDDDE1F9157
:1005A0000F9108952CED35E040E951E0CA01019723
:1005B000F1F721503040D1F780ED1BDE89E154DEA8
:1005C00087E052DE0EDE80ED14DE8BE64DDE81E04C
:1005D0004BDE07DE80ED0DDE8AE146DE80E044DEA4
:1005E00000DE80ED06DE8BE13FDE88E13DDEF9DDF9
:1005F00080EDFFDD88E338DE81E036DEF2DD089550
:1006000080EDF7DD8BE330DE81EDC9DD08951F93CA
:10061000F7DF3EDE182F3CDE312F20E090E0282B64
:10062000392B442737FD4095542FCA01B901CAD34D
:100630006093F9007093FA008093FB009093FC00A4
:1006400027DE182F25DE312F20E090E0282B392BD4
:10065000442737FD4095542FCA01B901B3D36093A5
:10066000CE007093CF008093D0009093D10010DE25
:10067000182F0EDE312F20E090E0282B392B442755
:1006800037FD4095542FCA01B9019CD36093C40033
:100690007093C5008093C6009093C700F9DD182FB2
:1006A000F7DD312F20E090E0282B392B442737FD50
:1006B0004095542FCA01B90185D36093C800709347
:1006C000C9008093CA009093CB00E2DD182FE0DDD3
:1006D000312F20E090E0282B392B442737FD40951F
:1006E000542FCA01B9016ED36093000170930101C8
:1006F0008093020190930301CBDD182FC9DD312FC8
:1007000020E090E0282B392B442737FD4095542FCB
:10071000CA01B90157D36093040170930501809316
:10072000060190930701B4DD182FBBDD312F20E0C7
:1007300090E0282B392B442737FD4095542FCA01D0
:10074000B90140D36093F2007093F3008093F400FA
:100750009093F50046DD1F9108952F923F924F929E
:100760005F926F927F928F929F92AF92BF92CF9241
:10077000DF92EF92FF920F931F93DF93CF9300D0FE
:1007800000D000D0CDB7DEB78FEF81BB8FE787BB3E
:1007900088EF84BB82E08093CC0084E08093F800F3
:1007A000E091F600F091F70083E08083E091F6009D
:1007B000F091F7008183E091F600F091F7008283D9
:1007C000E091F600F091F7008383E091FE00F09154
:1007D000FF008EE08083E091FE00F091FF008FE04B
:1007E0008183E091FE00F091FF0080E18283E0913F
:1007F000FE00F091FF0081E183831092CD00CBDCFD
:10080000D1DE8ADD84E690E0BADDA6DD62DEA4DD1D
:100810001E821D828091CD00813069F403D568E08D
:1008200070E06DD48093FD00FDD460E270E067D489
:1008300080930801F3CFEBDE6091F9007091FA002C
:100840008091FB009091FC0020E030E040E858E30C
:1008500099D33B014C016091CE007091CF00809103
:10086000D0009091D10020E030E040E858E38AD3F6
:100870001B012C01A201910185D3E62EF72E082F32
:10088000192F6091C4007091C5008091C6009091AD
:10089000C70020E030E040E858E374D39B01AC018E
:1008A00071D3A62EB72EC82ED92EC801B701A60126
:1008B00095018ED1CED39B01AC01C401B3019058F8
:1008C00017D2EAD121EE3EE245E652E45BD36983DA
:1008D0007A838B839C83C401B301A401930152D317
:1008E000262F372F482F592FC601B50171D1B1D30B
:1008F0009B01AC01C201B101FBD1CED121EE3EE2A0
:1009000045E652E43FD37B018C0169817A818B817A
:100910009C8120E030E040E050E0E6D188230CF0FC
:1009200045C0A980BA80CB80DC80D7FAD094D7F8B4
:10093000D094C801B70120E030E040E050E0D4D1CD
:100940008823D4F4A80197015058C601B5010FD3EC
:1009500018164CF48091CC00823008F064C023E07B
:100960002093CC0019C18091CC008250823008F0D5
:100970005AC01092CC00F8C0C801B701A601950179
:10098000B3D188234CF48091CC00823008F04BC066
:1009900033E03093CC0000C18091CC008250823093
:1009A00008F041C081E08093CC00F6C0C801B701D7
:1009B00020E030E040E050E097D18823D4F4A80153
:1009C0009701505869817A818B819C81D0D2181609
:1009D00044F48091CC00823030F5E2E0E093CC002A
:1009E000DBC08091CC0082508230E8F41092CC00C1
:1009F000BBC069817A818B819C81A8019701B7D2A4
:100A0000181644F48091CC00823068F4F2E0F09340
:100A1000CC00C2C08091CC008250823020F421E012
:100A20002093CC00B9C04091F6005091F70070912E
:100A3000F800872F90E00197FA01E80FF91F208155
:100A4000A091FE00B091FF00FD01E80FF91F608149
:100A50008091CC00882319F4922F915008C0922FD6
:100A6000813029F4922F9F5F983059F4AEC08230C4
:100A700029F46F5F603229F460E003C0833009F429
:100A80006150772309F1ED81FE81319711F120E06A
:100A900030E006C02F5F3F4FED81FE813197C9F0F6
:100AA000FA01E20FF31F8081891751F4FD01E20F73
:100AB000F31F8081861721F4E1E0F0E0FE83ED83EF
:100AC000822F8F5F871730F32D813E8121303105D2
:100AD000B1F484EA90E053DC3FDC20E137E280E9C6
:100AE00091E00197F1F721503040C9F784E690E09A
:100AF00046DC32DCEEDC30DC1E821D828BCE809147
:100B0000FD00891719F5809108018617F9F431E085
:100B10003093CD008091F8008F5F8093F800E091D2
:100B2000F600F091F700E80FF11D31978091FD007C
:100B300080838091F800E091FE00F091FF00E80FC3
:100B4000F11D319780910801808304C0892F90E0C6
:100B500070E0CEDC24EC39E080E991E00197F1F718
:100B600021503040C9F756CE4091F6005091F70021
:100B70007091F800872F90E00197FA01E80FF91FB4
:100B80002081A091FE00B091FF00FD01E80FF91F48
:100B900060818091CC0060CF4091F6005091F700C9
:100BA0007091F800872F90E00197FA01E80FF91F84
:100BB0002081A091FE00B091FF00FD01E80FF91F18
:100BC00060818091CC00922F4BCF90E05ACF50584B
:100BD000BB27AA270ED091C182D130F087D120F057
:100BE00031F49F3F11F41EF452C10EF4E095E7FB7F
:100BF00048C1E92F93D180F3BA17620773078407BE
:100C0000950718F071F49EF5ABC10EF4E0950B2E2C
:100C1000BA2FA02D0B01B90190010C01CA01A0014E
:100C20001124FF27591B99F0593F50F4503E68F1A9
:100C30001A16F040A22F232F342F4427585FF3CFEA
:100C4000469537952795A795F0405395C9F77EF4BB
:100C50001F16BA0B620B730B840BBAF09150A1F004
:100C6000FF0FBB1F661F771F881FC2F70EC0BA0F8A
:100C7000621F731F841F48F4879577956795B79512
:100C8000F7959E3F08F0B3CF9395880F08F099270A
:100C9000EE0F979587950895DF93DD27B92FBF77DE
:100CA00040E85FE31616170648075B0710F4D92FD4
:100CB00062D19F938F937F936F9309D2E6E2F0E026
:100CC000E9D01BD12F913F914F915F9167D1DD23E7
:100CD00049F09058A2EA2AED3FE049EC5FE3D07872
:100CE0005D2787DFDF9109C1A8D008F481E008956E
:100CF0000CD003C1FBD040F0F2D030F021F45F3FC4
:100D000019F0BFC051112DC1C2C008D198F3992369
:100D1000C9F35523B1F3951B550BBB27AA276217BF
:100D20007307840738F09F5F5F4F220F331F441F04
:100D3000AA1FA9F333D00E2E3AF0E0E830D091503C
:100D40005040E695001CCAF729D0FE2F27D0660F29
:100D5000771F881FBB1F261737074807AB07B0E868
:100D600009F0BB0B802DBF01FF2793585F4F2AF07E
:100D70009E3F510568F085C0F4C05F3FECF3983E9C
:100D8000DCF3869577956795B795F7959F5FC9F7DB
:100D9000880F911D9695879597F90895E1E0660F64
:100DA000771F881FBB1F621773078407BA0720F0DD
:100DB000621B730B840BBA0BEE1F88F7E095089546
:100DC000E89409C097FB3EF49095809570956195E5
:100DD0007F4F8F4F9F4F9923A9F0F92F96E9BB279B
:100DE0009395F695879577956795B795F111F8CF17
:100DF000FAF4BB0F11F460FF1BC06F5F7F4F8F4F82
:100E00009F4F16C0882311F096E911C0772321F077
:100E10009EE8872F762F05C0662371F096E8862F0F
:100E200070E060E02AF09A95660F771F881FDAF766
:100E3000880F9695879597F90895990F0008550F93
:100E4000AA0BE0E8FEEF16161706E807F907C0F050
:100E500012161306E407F50798F0621B730B840B58
:100E6000950B39F40A2661F0232B242B252B21F432
:100E700008950A2609F4A140A6958FEF811D811DD2
:100E8000089597F99F6780E870E060E008959FEF0C
:100E900080EC0895DF93CF931F930F93FF92EF920F
:100EA000DF927B018C01689405C0DA2EEF0176D0C9
:100EB000FE01E894A5912591359145915591AEF3A8
:100EC000EF0197DEFE019701A801DA9479F7DF9030
:100ED000EF90FF900F911F91CF91DF910895002423
:100EE0000A941616170618060906089500240A948F
:100EF00012161306140605060895092E0394000C15
:100F000011F4882352F0BB0F40F4BF2B11F460FFA3
:100F100004C06F5F7F4F8F4F9F4F089557FD9058CC
:100F2000440F551F59F05F3F71F04795880F97FBAD
:100F3000991F61F09F3F79F0879508951216130667
:100F40001406551FF2CF4695F1DF08C01616170696
:100F50001806991FF1CF86957105610508940895CB
:100F6000E894BB2766277727CB0197F9089565DFBB
:100F700008F48FEF08959B01AC0160E070E080E819
:100F80009FE3B6CE0BD0B9CFAADF28F0AFDF18F0C1
:100F9000952309F076CF7BCF1124E3CFBFDFA0F3F9
:100FA000959FD1F3950F50E0551F629FF001729FFE
:100FB000BB27F00DB11D639FAA27F00DB11DAA1F1D
:100FC000649F6627B00DA11D661F829F2227B00D6A
:100FD000A11D621F739FB00DA11D621F839FA00DF5
:100FE000611D221F749F3327A00D611D231F849F45
:100FF000600D211D822F762F6A2F11249F5750409C
:101000008AF0E1F088234AF0EE0FFF1FBB1F661F36
:10101000771F881F91505040A9F79E3F510570F0EF
:1010200030CF9FCF5F3FECF3983EDCF3869577950A
:101030006795B795F795E7959F5FC1F7FE2B880FEA
:10104000911D9695879597F9089511F40EF41FCF89
:1010500041C06CDFD0F39923D9F3CEF39F57550BE2
:1010600087FF46D00024A0E640EA900180585695BC
:10107000979528F4805C660F771F881F20F026174D
:101080003707480730F4621B730B840B2029312982
:101090004A2BA69517940794202531254A2758F7FF
:1010A000660F771F881F20F026173707480730F490
:1010B000620B730B840B200D311D411DA09581F730
:1010C000B901842F9158880F9695879508959B01B3
:1010D000AC0158CF9F3F31F0915020F48795779520
:1010E0006795B795880F911D9695879597F90895FF
:1010F00091505040660F771F881FD2F7089597FBD5
:10110000092E07260AD077FD04D02ED006D0002065
:101110001AF4709561957F4F0895F6F79095819533
:101120009F4F0895A1E21A2EAA1BBB1BFD010DC003
:10113000AA1FBB1FEE1FFF1FA217B307E407F50787
:1011400020F0A21BB30BE40BF50B661F771F881F63
:10115000991F1A9469F760957095809590959B01F9
:10116000AC01BD01CF010895AA1BBB1B51E107C013
:10117000AA1FBB1FA617B70710F0A61BB70B881F27
:10118000991F5A95A9F780959095BC01CD010895B6
:10119000A0E0B0E0EDECF8E096C0EC01A880B980EA
:1011A000CA80DB80A114B104C104D10441F484E2FB
:1011B000A82E89EDB82E8BE5C82E87E0D82EC60163
:1011C000B5012DE133EF41E050E05AD027EA31E498
:1011D00040E050E036D07B018C01C601B5012DE125
:1011E00033EF41E050E04CD0CA01B9012CEE34EFAE
:1011F0004FEF5FEF26D06E0D7F1D801F911F97FF71
:1012000004C06150704080409048688379838A832D
:101210009B839B013F77C901CDB7DEB7EAE06FC082
:10122000B7DF089580E690E0B3DF0895A0E0B0E076
:101230008093600090936100A0936200B09363007C
:101240000895629FD001739FF001829FE00DF11D10
:10125000649FE00DF11D929FF00D839FF00D749F30
:10126000F00D659FF00D9927729FB00DE11DF91FDC
:10127000639FB00DE11DF91FBD01CF011124089539
:1012800097FB092E05260ED057FD04D04BDF0AD060
:10129000001C38F450954095309521953F4F4F4FA5
:1012A0005F4F0895F6F790958095709561957F4F03
:1012B0008F4F9F4F08952F923F924F925F926F9260
:1012C0007F928F929F92AF92BF92CF92DF92EF92D6
:1012D000FF920F931F93CF93DF93CDB7DEB7CA1B57
:1012E000DB0B0FB6F894DEBF0FBECDBF09942A8882
:1012F000398848885F846E847D848C849B84AA842A
:10130000B984C884DF80EE80FD800C811B81AA81B6
:10131000B981CE0FD11D0FB6F894DEBF0FBECDBF81
:08132000ED010895F894FFCFE0
:1013280001000000000000000000000000000000B4
:1013380000000000000000000000000000000000A5
:101348000000000000000000000000000000000095
:1013580000C00300000000000000000000000000C2
:10136800000000000000000094F7DE43548450425F
:1013780094F75E42148642420085424294F4DE7B32
:041388000000000061
:00000001FF
